S014000047534D2052656365697665722E73726563D4
S11300000C942A000C9447000C9447000C9447006D
S11300100C9447000C9447000C9447000C94470040
S11300200C9447000C9447000C9447000C94470030
S11300300C9447000C9447000C9447000C94470020
S11300400C9447000C9447000C9447000C94470010
S11300500C94470011241FBECFE5D4E0DEBFCDBF12
S113006010E0A0E6B0E0E8EAF2E002C005900D92EC
S1130070AE36B107D9F720E0AEE6B0E001C01D927C
S1130080A53DB207E1F70E94E8000C9452010C94DC
S1130090000088BBA898A998AA9A8AE18A95F1F7E2
S11300A000C0AA988FE193E00197F1F700C0000027
S11300B0089588BBA89AA998AA9A8AE18A95F1F723
S11300C000C0AA988FE193E00197F1F700C0000007
S11300D008958FEF87BB84BBAA982FEF89EF90E038
S11300E0215080409040E1F700C0000088E30E9466
S11300F049002FEF89EF90E0215080409040E1F7D4
S113010000C000008EE00E9449002FEF89EF90E0CC
S1130110215080409040E1F700C0000081E00E943F
S113012049002FEF89EF90E0215080409040E1F7A3
S113013000C00000089581E00E9449008FE39FE120
S11301400197F1F700C0000008951F93CF93DF9348
S1130150EC018881882381F010E00E9459001F5F20
S11301608FE19EE40197F1F700C00000FE01E10F6A
S1130170F11D80818111F1CFDF91CF911F910895FD
S1130180813029F4862F81580E94490008958230D5
S113019021F4862F81540E944900089580E18AB990
S11301A086E880BD87E689B908955F9BFECF80917C
S11301B06E009CB1E82FF0E0EF58FF4F90838F5F03
S11301C080936E0080916F008F5F80936F0008951D
S11301D00F2EF0EAAF2EF0E0BF2EF02D0F2EF0EB35
S11301E0EF2EF0E0FF2EF02D0F2EF1EBCF2EF0E0EE
S11301F0DF2EF02DC3ECD0E004ED10E00E94690086
S11302000E94CE008CE00E94490010926F000E9470
S1130210D50080916F008336D1F780E690E00E948C
S1130220A5002FEF89E698E1215080409040E1F746
S113023000C000000E949B004501F40181914F0120
S11302400E9459008E149F04C1F761E082E00E946D
S1130250C0004601F40181914F010E9459008C169F
S11302609D06C1F7FFEF23ED80E3F150204080406D
S1130270E1F700C000000E949B004E01F40181914F
S11302804F010E94590080169106C1F7FFEF27EA3B
S113029081E6F15020408040E1F700C000000E9458
S10B02A09B00ACCFF894FFCFE2
S11102A8534D532052656365697665643A00D0
S9030000FC
